{
  "contractName": "DSE",
  "abi": [
    {
      "constant": true,
      "inputs": [
        {
          "name": "",
          "type": "uint256"
        }
      ],
      "name": "userAccts",
      "outputs": [
        {
          "name": "",
          "type": "address"
        }
      ],
      "payable": false,
      "stateMutability": "view",
      "type": "function"
    },
    {
      "anonymous": false,
      "inputs": [
        {
          "indexed": false,
          "name": "company_name",
          "type": "bytes16"
        },
        {
          "indexed": false,
          "name": "count",
          "type": "uint256"
        },
        {
          "indexed": false,
          "name": "price",
          "type": "uint256"
        }
      ],
      "name": "addStockEvent",
      "type": "event"
    },
    {
      "constant": false,
      "inputs": [
        {
          "name": "_address",
          "type": "address"
        }
      ],
      "name": "setUser",
      "outputs": [
        {
          "name": "",
          "type": "address"
        }
      ],
      "payable": false,
      "stateMutability": "nonpayable",
      "type": "function"
    },
    {
      "constant": true,
      "inputs": [],
      "name": "getusers",
      "outputs": [
        {
          "name": "",
          "type": "address[]"
        }
      ],
      "payable": false,
      "stateMutability": "view",
      "type": "function"
    },
    {
      "constant": true,
      "inputs": [
        {
          "name": "_address",
          "type": "address"
        }
      ],
      "name": "getCurrentUserStock",
      "outputs": [
        {
          "name": "",
          "type": "uint256"
        }
      ],
      "payable": false,
      "stateMutability": "view",
      "type": "function"
    },
    {
      "constant": true,
      "inputs": [],
      "name": "countUsers",
      "outputs": [
        {
          "name": "",
          "type": "uint256"
        }
      ],
      "payable": false,
      "stateMutability": "view",
      "type": "function"
    },
    {
      "constant": false,
      "inputs": [
        {
          "name": "_company_name",
          "type": "bytes16"
        },
        {
          "name": "_count",
          "type": "uint256"
        },
        {
          "name": "_seller",
          "type": "address"
        },
        {
          "name": "_price",
          "type": "uint256"
        }
      ],
      "name": "addStock",
      "outputs": [],
      "payable": false,
      "stateMutability": "nonpayable",
      "type": "function"
    },
    {
      "constant": true,
      "inputs": [
        {
          "name": "_address",
          "type": "address"
        }
      ],
      "name": "getNoOfStockOfUser",
      "outputs": [
        {
          "name": "",
          "type": "uint256"
        }
      ],
      "payable": false,
      "stateMutability": "view",
      "type": "function"
    },
    {
      "constant": true,
      "inputs": [
        {
          "name": "_address",
          "type": "address"
        },
        {
          "name": "i",
          "type": "uint256"
        }
      ],
      "name": "getStock",
      "outputs": [
        {
          "name": "",
          "type": "bytes16"
        }
      ],
      "payable": false,
      "stateMutability": "view",
      "type": "function"
    },
    {
      "constant": false,
      "inputs": [
        {
          "name": "_company_name",
          "type": "bytes16"
        },
        {
          "name": "_count",
          "type": "uint256"
        },
        {
          "name": "_seller",
          "type": "address"
        },
        {
          "name": "_price",
          "type": "uint256"
        }
      ],
      "name": "sellStock",
      "outputs": [
        {
          "name": "",
          "type": "bytes16"
        },
        {
          "name": "",
          "type": "uint256"
        },
        {
          "name": "",
          "type": "address"
        },
        {
          "name": "",
          "type": "uint256"
        }
      ],
      "payable": false,
      "stateMutability": "nonpayable",
      "type": "function"
    },
    {
      "constant": false,
      "inputs": [],
      "name": "getSellingList",
      "outputs": [
        {
          "components": [
            {
              "name": "company",
              "type": "bytes16"
            },
            {
              "name": "owner",
              "type": "address"
            },
            {
              "name": "count",
              "type": "uint256"
            },
            {
              "name": "price",
              "type": "uint256"
            }
          ],
          "name": "",
          "type": "tuple[]"
        }
      ],
      "payable": false,
      "stateMutability": "nonpayable",
      "type": "function"
    }
  ],
  "bytecode": "0x6080604052336000806101000a81548173ffffffffffffffffffffffffffffffffffffffff021916908373ffffffffffffffffffffffffffffffffffffffff160217905550611180806100536000396000f3fe60806040526004361061009e576000357c0100000000000000000000000000000000000000000000000000000000900480630ab2bb13146100a357806314edccc2146100e0578063242b266e1461010b5780632d8da3b21461014857806337530fbd146101735780636e526721146101b3578063858ced35146101dc578063e553024314610219578063f8fb1d0f14610256578063fe9243d014610281575b600080fd5b3480156100af57600080fd5b506100ca60048036036100c59190810190610dda565b6102be565b6040516100d79190610f3b565b60405180910390f35b3480156100ec57600080fd5b506100f56102fc565b6040516101029190610f56565b60405180910390f35b34801561011757600080fd5b50610132600480360361012d9190810190610d12565b61038a565b60405161013f9190611031565b60405180910390f35b34801561015457600080fd5b5061015d6103de565b60405161016a9190610f78565b60405180910390f35b34801561017f57600080fd5b5061019a60048036036101959190810190610d77565b6104f5565b6040516101aa9493929190610fb5565b60405180910390f35b3480156101bf57600080fd5b506101da60048036036101d59190810190610d77565b6106f7565b005b3480156101e857600080fd5b5061020360048036036101fe9190810190610d12565b6109c3565b6040516102109190610f3b565b60405180910390f35b34801561022557600080fd5b50610240600480360361023b9190810190610d3b565b610b94565b60405161024d9190610f9a565b60405180910390f35b34801561026257600080fd5b5061026b610c2b565b6040516102789190611031565b60405180910390f35b34801561028d57600080fd5b506102a860048036036102a39190810190610d12565b610c38565b6040516102b59190611031565b60405180910390f35b6003818154811015156102cd57fe5b906000526020600020016000915054906101000a900473ffffffffffffffffffffffffffffffffffffffff1681565b6060600380548060200260200160405190810160405280929190818152602001828054801561038057602002820191906000526020600020905b8160009054906101000a900473ffffffffffffffffffffffffffffffffffffffff1673ffffffffffffffffffffffffffffffffffffffff1681526020019060010190808311610336575b5050505050905090565b600080600260008473ffffffffffffffffffffffffffffffffffffffff1673ffffffffffffffffffffffffffffffffffffffff16815260200190815260200160002090508060020180549050915050919050565b60606001805480602002602001604051908101604052809291908181526020016000905b828210156104ec5783829060005260206000209060040201608060405190810160405290816000820160009054906101000a9004700100000000000000000000000000000000026fffffffffffffffffffffffffffffffff19166fffffffffffffffffffffffffffffffff191681526020016001820160009054906101000a900473ffffffffffffffffffffffffffffffffffffffff1673ffffffffffffffffffffffffffffffffffffffff1673ffffffffffffffffffffffffffffffffffffffff1681526020016002820154815260200160038201548152505081526020019060010190610402565b50505050905090565b6000806000806000600260008873ffffffffffffffffffffffffffffffffffffffff1673ffffffffffffffffffffffffffffffffffffffff168152602001908152602001600020905060008160010160008b6fffffffffffffffffffffffffffffffff19166fffffffffffffffffffffffffffffffff191681526020019081526020016000206000015411151561058b57600080fd5b610593610c84565b87816020019073ffffffffffffffffffffffffffffffffffffffff16908173ffffffffffffffffffffffffffffffffffffffff16815250508981600001906fffffffffffffffffffffffffffffffff191690816fffffffffffffffffffffffffffffffff19168152505088816040018181525050868160600181815250506001819080600181540180825580915050906001820390600052602060002090600402016000909192909190915060008201518160000160006101000a8154816fffffffffffffffffffffffffffffffff02191690837001000000000000000000000000000000009004021790555060208201518160010160006101000a81548173ffffffffffffffffffffffffffffffffffffffff021916908373ffffffffffffffffffffffffffffffffffffffff16021790555060408201518160020155606082015181600301555050508989898995509550955095505050945094509450949050565b6000600260008473ffffffffffffffffffffffffffffffffffffffff1673ffffffffffffffffffffffffffffffffffffffff168152602001908152602001600020905083816001016000876fffffffffffffffffffffffffffffffff19166fffffffffffffffffffffffffffffffff191681526020019081526020016000206000016000828254019250508190555081816001016000876fffffffffffffffffffffffffffffffff19166fffffffffffffffffffffffffffffffff191681526020019081526020016000206001018190555060008160020180549050141561084b578060020185908060018154018082558091505090600182039060005260206000209060029182820401919006601002909192909190916101000a8154816fffffffffffffffffffffffffffffffff0219169083700100000000000000000000000000000000900402179055505061096f565b60008090505b81600201805490508160ff1611151561096d57816002018160ff1681548110151561087857fe5b90600052602060002090600291828204019190066010029054906101000a9004700100000000000000000000000000000000026fffffffffffffffffffffffffffffffff1916866fffffffffffffffffffffffffffffffff191614156108dd5761096d565b81600201805490506001820160ff161415610960578160020186908060018154018082558091505090600182039060005260206000209060029182820401919006601002909192909190916101000a8154816fffffffffffffffffffffffffffffffff021916908370010000000000000000000000000000000090040217905550505b8080600101915050610851565b505b8381600001600082825401925050819055507faa089e44188d7f863f0d8965ce161dc43b447e1ace64b3658e6c9a95532ed5d38585846040516109b493929190610ffa565b60405180910390a15050505050565b600080600260008473ffffffffffffffffffffffffffffffffffffffff1673ffffffffffffffffffffffffffffffffffffffff168152602001908152602001600020905060006003805490501415610a805760038390806001815401808255809150509060018203906000526020600020016000909192909190916101000a81548173ffffffffffffffffffffffffffffffffffffffff021916908373ffffffffffffffffffffffffffffffffffffffff16021790555050610b8b565b60008090505b600380549050811015610b89578373ffffffffffffffffffffffffffffffffffffffff16600382815481101515610ab957fe5b9060005260206000200160009054906101000a900473ffffffffffffffffffffffffffffffffffffffff1673ffffffffffffffffffffffffffffffffffffffff161415610b0557610b89565b600380549050600182011415610b7c5760038490806001815401808255809150509060018203906000526020600020016000909192909190916101000a81548173ffffffffffffffffffffffffffffffffffffffff021916908373ffffffffffffffffffffffffffffffffffffffff160217905550505b8080600101915050610a86565b505b82915050919050565b600080600260008573ffffffffffffffffffffffffffffffffffffffff1673ffffffffffffffffffffffffffffffffffffffff168152602001908152602001600020905060008160020184815481101515610beb57fe5b90600052602060002090600291828204019190066010029054906101000a9004700100000000000000000000000000000000029050809250505092915050565b6000600380549050905090565b6000600260008373ffffffffffffffffffffffffffffffffffffffff1673ffffffffffffffffffffffffffffffffffffffff168152602001908152602001600020600001549050919050565b60806040519081016040528060006fffffffffffffffffffffffffffffffff19168152602001600073ffffffffffffffffffffffffffffffffffffffff16815260200160008152602001600081525090565b6000610ce282356110fe565b905092915050565b6000610cf68235611110565b905092915050565b6000610d0a823561113c565b905092915050565b600060208284031215610d2457600080fd5b6000610d3284828501610cd6565b91505092915050565b60008060408385031215610d4e57600080fd5b6000610d5c85828601610cd6565b9250506020610d6d85828601610cfe565b9150509250929050565b60008060008060808587031215610d8d57600080fd5b6000610d9b87828801610cea565b9450506020610dac87828801610cfe565b9350506040610dbd87828801610cd6565b9250506060610dce87828801610cfe565b91505092959194509250565b600060208284031215610dec57600080fd5b6000610dfa84828501610cfe565b91505092915050565b610e0c81611096565b82525050565b6000610e1d82611066565b808452602084019350610e2f8361104c565b60005b82811015610e6157610e45868351610e03565b610e4e8261107c565b9150602086019550600181019050610e32565b50849250505092915050565b6000610e7882611071565b808452602084019350610e8a83611059565b60005b82811015610ebc57610ea0868351610ed7565b610ea982611089565b9150608086019550600181019050610e8d565b50849250505092915050565b610ed1816110a8565b82525050565b608082016000820151610eed6000850182610ec8565b506020820151610f006020850182610e03565b506040820151610f136040850182610f2c565b506060820151610f266060850182610f2c565b50505050565b610f35816110f4565b82525050565b6000602082019050610f506000830184610e03565b92915050565b60006020820190508181036000830152610f708184610e12565b905092915050565b60006020820190508181036000830152610f928184610e6d565b905092915050565b6000602082019050610faf6000830184610ec8565b92915050565b6000608082019050610fca6000830187610ec8565b610fd76020830186610f2c565b610fe46040830185610e03565b610ff16060830184610f2c565b95945050505050565b600060608201905061100f6000830186610ec8565b61101c6020830185610f2c565b6110296040830184610f2c565b949350505050565b60006020820190506110466000830184610f2c565b92915050565b6000602082019050919050565b6000602082019050919050565b600081519050919050565b600081519050919050565b6000602082019050919050565b6000602082019050919050565b60006110a1826110d4565b9050919050565b60007fffffffffffffffffffffffffffffffff0000000000000000000000000000000082169050919050565b600073ffffffffffffffffffffffffffffffffffffffff82169050919050565b6000819050919050565b6000611109826110d4565b9050919050565b60007fffffffffffffffffffffffffffffffff0000000000000000000000000000000082169050919050565b600081905091905056fea265627a7a72305820285e0ee18b3cc588e848be70a13cb7d5cb5632164f9353dccde99698865271f36c6578706572696d656e74616cf50037",
  "source": "pragma solidity ^0.5.0;\r\npragma experimental ABIEncoderV2;\r\ncontract owned {\r\naddress owner;\r\nconstructor () public {\r\nowner = msg.sender;\r\n}\r\nmodifier onlyOwner() {\r\nrequire(msg.sender == owner); _;\r\n}}\r\ncontract DSE is owned {\r\nstruct User {\r\nuint stocknumbers;\r\nmapping(bytes16 => Stocks) stocks;\r\nbytes16[] company_names;\r\n}\r\nstruct Sell_Stock {\r\nbytes16 company;\r\naddress owner;\r\nuint count;\r\nuint price;\r\n}\r\nSell_Stock[] sellingList;\r\nstruct Stocks {\r\nuint count;\r\nuint price;\r\n}\r\nevent addStockEvent(bytes16 company_name, uint count, uint price);\r\nmapping(address => User) users;\r\naddress[] public userAccts;\r\nfunction setUser(address _address) public returns (address) {\r\nUser storage user = users[_address];\r\nif (userAccts.length == 0) {\r\nuserAccts.push(_address);\r\n} else {\r\nfor (uint i = 0; i < userAccts.length; i++) {\r\nif (userAccts[i] == _address) {\r\nbreak; }\r\nif (i + 1 == userAccts.length) {\r\nuserAccts.push(_address);\r\n}} }\r\nreturn _address;}\r\nfunction getusers() public view returns (address[] memory) {\r\nreturn userAccts;}\r\nfunction getCurrentUserStock(address _address) public view returns (uint) {\r\nreturn (users[_address].stocknumbers); }\r\nfunction countUsers() public view returns (uint) {\r\nreturn userAccts.length;}\r\nfunction addStock(bytes16 _company_name, uint _count, address _seller, uint _price) public {\r\nUser storage seller = users[_seller];\r\nseller.stocks[_company_name].count += _count;\r\nseller.stocks[_company_name].price = _price;\r\nif (seller.company_names.length == 0) {\r\nseller.company_names.push(_company_name);\r\n} else {\r\nfor (uint8 i = 0; i <= seller.company_names.length; i++) {\r\nif (_company_name == seller.company_names[i]) {\r\nbreak;\r\n}\r\nif (i + 1 == seller.company_names.length) {\r\nseller.company_names.push(_company_name);\r\n}}}\r\nseller.stocknumbers += _count;\r\nemit addStockEvent(_company_name, _count, _price);\r\n}\r\nfunction getNoOfStockOfUser(address _address) public view returns (uint) {\r\nUser storage user = users[_address];\r\nreturn user.company_names.length;\r\n}\r\nfunction getStock(address _address, uint i) public view returns (bytes16) {\r\nUser storage user = users[_address];\r\nbytes16 company_name = user.company_names[i];\r\nreturn company_name;\r\n}\r\nfunction sellStock(bytes16 _company_name, uint _count, address _seller, uint _price) public returns\r\n(bytes16, uint, address, uint) {\r\nUser storage seller = users[_seller];\r\nrequire(seller.stocks[_company_name].count > 0);\r\nSell_Stock memory temp;\r\ntemp.owner = _seller;\r\ntemp.company = _company_name;\r\ntemp.count = _count;\r\ntemp.price = _price;\r\nsellingList.push(temp);\r\nreturn (_company_name, _count, _seller, _price);\r\n}\r\nfunction getSellingList() public returns (Sell_Stock[] memory) {\r\nreturn sellingList;\r\n}\r\n}\r\n",
  "sourcePath": "C:\\Users\\ayush\\blockchainpro\\contracts\\stocks.sol",
  "compiler": {
    "name": "solc",
    "version": "0.5.1+commit.c8a2cb62.Emscripten.clang"
  },
  "schemaVersion": "3.1.0",
  "updatedAt": "2020-04-23T21:55:22.876Z",
  "devdoc": {
    "methods": {}
  },
  "userdoc": {
    "methods": {}
  }
}